:020000040800F2
:100000007006002061020008690200086B02000807
:100010006D0200086F020008710200080000000075
:100020000000000000000000000000007302000853
:10003000750200080000000077020008790200083D
:100040007B0200087B0200087B0200087B0200089C
:100050007B0200087B0200087B0200087B0200088C
:100060007B0200087B0200087B0200087B0200087C
:100070007B0200087B0200087B0200087B0200086C
:100080007B0200087B0200087B02000800000000E1
:100090000000000000000000000000007B020008DB
:1000A0007B0200087B0200087B0200087B0200083C
:1000B0007B0200087B0200087B0200087B0200082C
:1000C0007B0200087B0200087B0200087B0200081C
:1000D0007B0200087B0200087B0200080000000091
:1000E0007B0200087B0200087B0200080000000081
:1000F0000000000000000000000000007B0200087B
:10010000000000007B0200087B0200087B02000860
:1001100000000000000000000000000000000000DF
:100120007B0200087B0200087B0200087B020008BB
:100130007B0200080000000000000000000000003A
:100140000000000000000000000000007B0200082A
:100150007B0200087B0200087B0200087B0200088B
:100160007B0200087B020008000000000000000085
:10017000000000000000000000000000000000007F
:10018000000000007B0200080000000000000000EA
:100190007B02000800F002F800F052F814A696E87E
:1001A000000CB244B344DA4501D100F049F8BAE892
:1001B0000F000FA696E83000A5EB040504EB060738
:1001C000AAEB0704A7F101074FEA15154FEA34140B
:1001D000A4F10104AC4201D300F032F813F0010F96
:1001E00018BFFB1A43F0010300F001F8DBE71847E2
:1001F000B4020000D4020000103A24BF78C878C1CD
:10020000FAD8520724BF30C830C144BF04680C601C
:1002100070470000704700000023002400250026DE
:10022000103A28BF78C1FBD8520728BF30C148BF59
:100230000B6070471FB500F027F91FBD10B510BD4A
:1002400000F031F81146FFF7F5FF00F071F800F00B
:100250004FF803B4FFF7F2FF03BC00F057F80000BB
:100260000948804709480047FEE7FEE7FEE7FEE74A
:10027000FEE7FEE7FEE7FEE7FEE7FEE70448054986
:10028000054A064B704700001D0300089501000851
:100290007000002070060020700200207002002014
:1002A000704770477047754600F02CF8AE46050061
:1002B0006946534620F00700854618B020B5FFF781
:1002C000DDFFBDE820404FF000064FF000074FF083
:1002D00000084FF0000BAC46ACE8C009ACE8C00920
:1002E000ACE8C009ACE8C00921F007018D467047B1
:1002F00010B50446AFF300802046BDE81040FFF77C
:10030000A8BF0000004870470800002001491820DD
:10031000ABBEFEE726000200704700004EF6885193
:10032000CEF20001086840F47000086070470000D9
:1003300083B00020029043F63002C4F2020211683A
:1003400041F001011160116841F00401116043F6B0
:100350004402C4F20202116841F48071116000226B
:10036000C4F20202116841F002011160116841F00B
:100370000101116040F60002C4F20202116811602E
:10038000116841F08051116042F21002C4F2010282
:1003900011681160116811601168116042F2043235
:1003A000C4F2010211681160116841F480311160DA
:1003B00042F23402C4F20102009211681160116825
:1003C000116011681160116811601168116042F2CA
:1003D0002C02C4F2010201921168116011681160CF
:1003E000116811601168116042F20801C4F2010144
:1003F0000860086840F002000860086840F00100EA
:100400000860FFE742F20800C4F201000068C0077C
:1004100008B9FFE7F6E742F20801C4F201010868F3
:1004200040F080400860FFE7FFE742F20000C4F2BE
:10043000010000688007002801D4FFE7F5E742F2D9
:100440004C00C4F20100016840F26800C2F20000F2
:100450000160006840F20001C2F2000109688842B0
:1004600009DDFFE740F61401C4F20201086840F418
:100470008040086007E040F61401C4F202010868F9
:1004800000200860FFE7CFE7F1EE100A4FF6FF719A
:10049000C0F2C03120EA010040F04070E1EE100AE5
:1004A00070470000C40400080000002004000000A1
:1004B000F8010008C80400080800002068060000D1
:0804C00018020008000400000E
:04000005080002618C
:00000001FF
