:020000040800F2
:1000000060060020450200084D0200084F0200086B
:1000100051020008530200085502000800000000C9
:10002000000000000000000000000000570200086F
:1000300059020008000000005B0200085D02000891
:100040005F0200085F0200085F0200085F0200080C
:100050005F0200085F0200085F0200085F020008FC
:100060005F0200085F0200085F0200085F020008EC
:100070005F0200085F0200085F0200085F020008DC
:100080005F0200085F0200085F0200080000000035
:100090000000000000000000000000000103000854
:1000A0005F0200085F0200085F0200085F020008AC
:1000B0005F0200085F0200085F0200085F0200089C
:1000C0005F0200085F0200085F0200085F0200088C
:1000D0005F0200085F0200085F02000800000000E5
:1000E0005F0200085F0200085F02000800000000D5
:1000F0000000000000000000000000005F02000897
:10010000000000005F0200085F0200085F020008B4
:1001100000000000000000000000000000000000DF
:100120005F0200085F0200085F0200085F0200082B
:100130005F02000800000000000000000000000056
:100140000000000000000000000000005F02000846
:100150005F0200085F0200085F0200085F020008FB
:100160005F0200085F0200080000000000000000BD
:10017000000000000000000000000000000000007F
:10018000000000005F020008000000000000000006
:100190005F02000800F002F800F044F814A696E8A8
:1001A000000CB244B344DA4501D100F03BF8BAE8A0
:1001B0000F000FA696E83000A5EB040504EB060738
:1001C000AAEB0704A7F101074FEA15154FEA34140B
:1001D000A4F10104AC4201D300F024F813F0010FA4
:1001E00018BFFB1A43F0010300F001F8DBE71847E2
:1001F000D8020000E802000070470000002300243D
:1002000000250026103A28BF78C1FBD8520728BF26
:1002100030C148BF0B6070471FB500F048F91FBDE3
:1002200010B510BD00F031F81146FFF7F5FF00F0F2
:10023000D1F800F04FF803B4FFF7F2FF03BC00F071
:1002400057F800000948804709480047FEE7FEE7E5
:10025000FEE7FEE7FEE7FEE7FEE7FEE7FEE7FEE776
:1002600004480549054A064B704700009103000801
:100270009501000860000020600600206002002058
:1002800060020020704770477047754600F02CF8F8
:10029000AE4605006946534620F00700854618B073
:1002A00020B5FFF7DDFFBDE820404FF000064FF01E
:1002B00000074FF000084FF0000BAC46ACE8C00957
:1002C000ACE8C009ACE8C009ACE8C00921F00701FE
:1002D0008D46704710B50446AFF300802046BDE858
:1002E0001040FFF7A8BF0000004870470000002042
:1002F00001491820ABBEFEE726000200704700004F
:1003000043F61440C4F201000068400600281AD5E4
:10031000FFE740F61400C4F2020000684004002821
:1003200011D5FFE743F61441C4F20101086840F01B
:100330004000086040F61401C4F20201086820F48D
:1003400080400860FFE743F61440C4F201000068F3
:10035000400600281AD5FFE740F61400C4F2020058
:1003600000684004002811D4FFE743F61441C4F2AA
:100370000101086840F04000086040F61401C4F232
:100380000201086840F480400860FFE77047000001
:100390004EF68851CEF20001086840F47000086003
:1003A0007047000081B08DF803009DF9030000281C
:1003B0000ED4FFE79DF9031001F01F0201209040C9
:1003C0004A094EF20011CEF2000141F82200FFE787
:1003D00001B0704780B582B00020019043F6300232
:1003E000C4F20202116841F001011160116841F08C
:1003F000040111600022C4F20202116821F440518C
:100400001160116821F4404111600C22C4F2020213
:100410000092116821F440511160116841F480513B
:100420001160116821F440411160116841F480416C
:10043000116040F60002C4F20202116821F040513E
:100440001160116841F08051116043F64402C4F21A
:100450000202116841F48041116043F60C01C4F2BC
:1004600001010860086820F470600860086820F4E2
:100470007040086043F60041C4F20101086840F092
:1004800040000860086840F08000086043F60C41B6
:10049000C4F20101086840F040000860086840F0BC
:1004A000800008601720FFF77DFFFFE7FEE7F1EE11
:1004B000100A4FF6FF71C0F2C03120EA010040F08F
:1004C0004070E1EE100A7047D804000800000020D8
:0804D00060060000FC010008B9
:0400000508000245A8
:00000001FF
