:020000040800F2
:100000007006002061020008690200086B02000807
:100010006D0200086F020008710200080000000075
:100020000000000000000000000000007302000853
:10003000750200080000000077020008790200083D
:100040007B0200087B0200087B0200087B0200089C
:100050007B0200087B0200087B0200087B0200088C
:100060007B0200087B0200087B0200087B0200087C
:100070007B0200087B0200087B0200087B0200086C
:100080007B0200087B0200087B02000800000000E1
:100090000000000000000000000000007B020008DB
:1000A0007B0200087B0200087B0200087B0200083C
:1000B0007B0200087B0200087B0200087B0200082C
:1000C0007B0200087B0200087B0200087B0200081C
:1000D0007B0200087B0200087B0200080000000091
:1000E0007B0200087B0200087B0200080000000081
:1000F0000000000000000000000000007B0200087B
:10010000000000007B0200087B0200087B02000860
:1001100000000000000000000000000000000000DF
:100120007B0200087B0200087B0200087B020008BB
:100130007B0200080000000000000000000000003A
:100140000000000000000000000000007B0200082A
:100150007B0200087B0200087B0200087B0200088B
:100160007B0200087B020008000000000000000085
:10017000000000000000000000000000000000007F
:10018000000000007B0200080000000000000000EA
:100190007B02000800F002F800F052F814A696E87E
:1001A000000CB244B344DA4501D100F049F8BAE892
:1001B0000F000FA696E83000A5EB040504EB060738
:1001C000AAEB0704A7F101074FEA15154FEA34140B
:1001D000A4F10104AC4201D300F032F813F0010F96
:1001E00018BFFB1A43F0010300F001F8DBE71847E2
:1001F000F802000018030000103A24BF78C878C144
:10020000FAD8520724BF30C830C144BF04680C601C
:1002100070470000704700000023002400250026DE
:10022000103A28BF78C1FBD8520728BF30C148BF59
:100230000B6070471FB500F04AF91FBD10B510BD27
:1002400000F031F81146FFF7F5FF00F071F800F00B
:100250004FF803B4FFF7F2FF03BC00F057F80000BB
:100260000948804709480047FEE7FEE7FEE7FEE74A
:10027000FEE7FEE7FEE7FEE7FEE7FEE70448054986
:10028000054A064B704700001D0300089501000851
:100290007000002070060020700200207002002014
:1002A000704770477047754600F02CF8AE46050061
:1002B0006946534620F00700854618B020B5FFF781
:1002C000DDFFBDE820404FF000064FF000074FF083
:1002D00000084FF0000BAC46ACE8C009ACE8C00920
:1002E000ACE8C009ACE8C00921F007018D467047B1
:1002F00010B50446AFF300802046BDE81040FFF77C
:10030000A8BF0000004870470800002001491820DD
:10031000ABBEFEE726000200704700004EF6885193
:10032000CEF20001086840F47000086070470000D9
:1003300081B00020009043F63002C4F2020211683E
:1003400041F001011160116841F00401116043F6B0
:100350004402C4F20202116841F48071116000226B
:10036000C4F20202116821F440711160116841F475
:1003700040711160116821F4405111600C22C4F2E7
:100380000202116821F440511160116841F480515A
:10039000116040F60002C4F20202116821F04051DF
:1003A0001160116841F08051116042F21002C4F2F4
:1003B00001021060116841F48051116042F2043270
:1003C000C4F20102116841F48031116042F204026A
:1003D000C4F20102106042F20801C4F20101086097
:1003E00042F2340CC4F2010CCCF80000DCF800300E
:1003F00043F00403CCF8003042F22C03C4F20103B2
:100400001860106840F080701060086840F00200CA
:100410000860086840F001000860FFE742F2080049
:10042000C4F201000068C00708B9FFE7F6E742F22E
:100430000801C4F20101086840F080400860FFE74D
:10044000FFE742F20000C4F20100006880070028C4
:1004500001D4FFE7F5E742F24C00C4F20100006866
:1004600040F26801C2F2000108601020C4F20200EC
:1004700000684006002820D4FFE740F26800C2F27E
:100480000000006840F20001C2F2000109688842E1
:1004900009DBFFE740F61401C4F20201086840F4EA
:1004A0008040086008E040F61401C4F202010868C8
:1004B00020F480400860FFE708E040F61401C4F231
:1004C0000201086820F480400860FFE7B8E7F1EE19
:1004D000100A4FF6FF71C0F2C03120EA010040F06F
:1004E0004070E1EE100A7047080500080000002087
:1004F00004000000F80100080C05000808000020B6
:0C0500006806000018020008F40100006A
:04000005080002618C
:00000001FF
