:020000040800F2
:1000000068060020450200084D0200084F02000863
:1000100051020008530200085502000800000000C9
:10002000000000000000000000000000570200086F
:1000300059020008000000005B02000801030008EC
:100040005F0200085F0200085F0200085F0200080C
:100050005F0200085F0200085F0200085F020008FC
:100060005F0200085F0200085F0200085F020008EC
:100070005F0200085F0200085F0200085F020008DC
:100080005F0200085F0200085F0200080000000035
:100090000000000000000000000000005F020008F7
:1000A0005F0200085F0200085F0200085F020008AC
:1000B0005F0200085F0200085F0200085F0200089C
:1000C0005F0200085F0200085F0200085F0200088C
:1000D0005F0200085F0200085F02000800000000E5
:1000E0005F0200085F0200085F02000800000000D5
:1000F0000000000000000000000000005F02000897
:10010000000000005F0200085F0200085F020008B4
:1001100000000000000000000000000000000000DF
:100120005F0200085F0200085F0200085F0200082B
:100130005F02000800000000000000000000000056
:100140000000000000000000000000005F02000846
:100150005F0200085F0200085F0200085F020008FB
:100160005F0200085F0200080000000000000000BD
:10017000000000000000000000000000000000007F
:10018000000000005F020008000000000000000006
:100190005F02000800F002F800F044F814A696E8A8
:1001A000000CB244B344DA4501D100F03BF8BAE8A0
:1001B0000F000FA696E83000A5EB040504EB060738
:1001C000AAEB0704A7F101074FEA15154FEA34140B
:1001D000A4F10104AC4201D300F024F813F0010FA4
:1001E00018BFFB1A43F0010300F001F8DBE71847E2
:1001F000F401000004020000704700000023002406
:1002000000250026103A28BF78C1FBD8520728BF26
:1002100030C148BF0B6070471FB500F0D6F81FBD56
:1002200010B510BD00F031F81146FFF7F5FF00F0F2
:1002300097F800F04FF803B4FFF7F2FF03BC00F0AB
:1002400057F800000948804709480047FEE7FEE7E5
:10025000FEE7FEE7FEE7FEE7FEE7FEE7FEE7FEE776
:1002600004480549054A064B704700004D03000845
:100270009501000868000020680600206802002040
:1002800068020020704770477047754600F02CF8F0
:10029000AE4605006946534620F00700854618B073
:1002A00020B5FFF7DDFFBDE820404FF000064FF01E
:1002B00000074FF000084FF0000BAC46ACE8C00957
:1002C000ACE8C009ACE8C009ACE8C00921F00701FE
:1002D0008D46704710B50446AFF300802046BDE858
:1002E0001040FFF7A8BF0000004870470000002042
:1002F00001491820ABBEFEE726000200704700004F
:1003000040F26000C2F20000016801310160006843
:10031000022819DBFFE74EF21000CEF20000006861
:10032000C00300280FD5FFE740F61401C4F2020114
:10033000086880F48040086040F26001C2F2000169
:1003400000200860FFE7FFE7704700004EF6885185
:10035000CEF20001086840F47000086070470000A9
:1003600081B00020009043F63002C4F2020211680E
:1003700041F00401116040F60002C4F2020211686B
:100380001160116841F0805111604EF21402CEF2FA
:10039000000242F2FF31C0F2F40111604EF2180186
:1003A000CEF2000108604EF21001CEF200010868A2
:1003B00040F001000860086840F00200086008682A
:1003C00040F004000860FFE7FEE7F1EE100A4FF688
:1003D000FF71C0F2C03120EA010040F04070E1EE50
:1003E000100A7047F40300080000002068060000AF
:0403F000FC01000804
:0400000508000245A8
:00000001FF
