:020000040800F2
:1000000068060020450200084D0200084F02000863
:1000100051020008530200085502000800000000C9
:10002000000000000000000000000000570200086F
:1000300059020008000000005B0200085D02000891
:100040005F0200085F0200085F0200085F0200080C
:100050005F0200085F0200085F0200085F020008FC
:100060005F0200085F0200085F0200085F020008EC
:100070005F0200085F0200085F0200085F020008DC
:100080005F0200085F0200085F0200080000000035
:100090000000000000000000000000000103000854
:1000A0005F0200085F0200085F0200085F020008AC
:1000B0005F0200085F0200085F0200085F0200089C
:1000C0005F0200085F0200085F0200085F0200088C
:1000D0005F0200085F0200085F02000800000000E5
:1000E0005F0200085F0200085F02000800000000D5
:1000F0000000000000000000000000005F02000897
:10010000000000005F0200085F0200085F020008B4
:1001100000000000000000000000000000000000DF
:100120005F0200085F0200085F0200085F0200082B
:100130005F02000800000000000000000000000056
:100140000000000000000000000000005F02000846
:100150005F0200085F0200085F0200085F020008FB
:100160005F0200085F0200080000000000000000BD
:10017000000000000000000000000000000000007F
:10018000000000005F020008000000000000000006
:100190005F02000800F002F800F044F814A696E8A8
:1001A000000CB244B344DA4501D100F03BF8BAE8A0
:1001B0000F000FA696E83000A5EB040504EB060738
:1001C000AAEB0704A7F101074FEA15154FEA34140B
:1001D000A4F10104AC4201D300F024F813F0010FA4
:1001E00018BFFB1A43F0010300F001F8DBE71847E2
:1001F000D8020000E802000070470000002300243D
:1002000000250026103A28BF78C1FBD8520728BF26
:1002100030C148BF0B6070471FB500F047F91FBDE4
:1002200010B510BD00F031F81146FFF7F5FF00F0F2
:10023000D1F800F04FF803B4FFF7F2FF03BC00F071
:1002400057F800000948804709480047FEE7FEE7E5
:10025000FEE7FEE7FEE7FEE7FEE7FEE7FEE7FEE776
:1002600004480549054A064B704700009103000801
:100270009501000868000020680600206802002040
:1002800068020020704770477047754600F02CF8F0
:10029000AE4605006946534620F00700854618B073
:1002A00020B5FFF7DDFFBDE820404FF000064FF01E
:1002B00000074FF000084FF0000BAC46ACE8C00957
:1002C000ACE8C009ACE8C009ACE8C00921F00701FE
:1002D0008D46704710B50446AFF300802046BDE858
:1002E0001040FFF7A8BF0000004870470000002042
:1002F00001491820ABBEFEE726000200704700004F
:1003000040F26001C2F2000108680130086043F663
:100310001440C4F2010000684006002837D5FFE70A
:1003200043F61441C4F20101086840F0400008603F
:1003300040F26000C2F20000006800EBD07121F0D2
:100340000101401A88B1FFE740F61401C4F202012E
:10035000086840F48040086040F21441C4F2020191
:10036000086820F40070086010E040F61401C4F240
:100370000201086820F48040086040F21441C4F291
:100380000201086840F400700860FFE7FFE770476B
:100390004EF68851CEF20001086840F47000086003
:1003A0007047000081B08DF803009DF9030000281C
:1003B0000ED4FFE79DF9031001F01F0201209040C9
:1003C0004A094EF20011CEF2000141F82200FFE787
:1003D00001B0704780B582B00020019043F6300133
:1003E000C4F20201086840F001000860086840F0AB
:1003F00004000860086840F00200086040F6000150
:10040000C4F20201086820F040500860086840F01B
:100410008050086040F20041C4F20201086820F4F4
:1004200040200860086840F4802008600021C4F281
:100430000201086820F4405008600C21C4F2020157
:10044000086820F440500860086840F48050086054
:1004500043F64401C4F20201086840F48040086099
:1004600043F60C01C4F201010091086820F00F006E
:10047000086008680860086808600868086008681C
:10048000086043F60041C4F20101086840F04000F2
:10049000086043F60C41C4F20101086840F04000D6
:1004A00008601720FFF77EFFFFE7FEE7F1EE100A76
:1004B0004FF6FF71C0F2C03120EA010040F04070F9
:1004C000E1EE100A70470000D80400080000002088
:0804D00068060000FC010008B1
:0400000508000245A8
:00000001FF
