:020000040800F2
:1000000060060020450200084D0200084F0200086B
:1000100051020008530200085502000800000000C9
:10002000000000000000000000000000570200086F
:1000300059020008000000005B0200085D02000891
:100040005F0200085F0200085F0200085F0200080C
:100050005F0200085F0200085F0200085F020008FC
:100060005F0200085F0200085F0200085F020008EC
:100070005F0200085F0200085F0200085F020008DC
:100080005F0200085F0200085F0200080000000035
:100090000000000000000000000000005F020008F7
:1000A0005F0200085F0200085F0200085F020008AC
:1000B0005F0200085F0200085F0200085F0200089C
:1000C0005F0200085F0200085F0200085F0200088C
:1000D0005F0200085F0200085F02000800000000E5
:1000E0005F0200085F0200085F02000800000000D5
:1000F0000000000000000000000000005F02000897
:10010000000000005F0200085F0200085F020008B4
:1001100000000000000000000000000000000000DF
:100120005F0200085F0200085F0200085F0200082B
:100130005F02000800000000000000000000000056
:100140000000000000000000000000005F02000846
:100150005F0200085F0200085F0200085F020008FB
:100160005F0200085F0200080000000000000000BD
:10017000000000000000000000000000000000007F
:10018000000000005F020008000000000000000006
:100190005F02000800F002F800F044F814A696E8A8
:1001A000000CB244B344DA4501D100F03BF8BAE8A0
:1001B0000F000FA696E83000A5EB040504EB060738
:1001C000AAEB0704A7F101074FEA15154FEA34140B
:1001D000A4F10104AC4201D300F024F813F0010FA4
:1001E00018BFFB1A43F0010300F001F8DBE71847E2
:1001F0000C0300001C0300007047000000230024D3
:1002000000250026103A28BF78C1FBD8520728BF26
:1002100030C148BF0B6070471FB500F058F91FBDD3
:1002200010B510BD00F0A8F81146FFF7F5FF00F07B
:10023000E7F800F0C6F803B4FFF7F2FF03BC00F0E4
:10024000CDF800000948804709480047FEE7FEE76F
:10025000FEE7FEE7FEE7FEE7FEE7FEE7FEE7FEE776
:1002600004480549054A064B70470000ED030008A5
:100270009501000860000020600600206002002058
:1002800060020020032A40F2308010F0030C00F0DE
:10029000158011F8013BBCF1020F624498BF11F8C0
:1002A00001CB00F8013B38BF11F8013BA2F1040279
:1002B00098BF00F801CB38BF00F8013B11F00303F1
:1002C00000F02880083AC0F0088051F8043B083A52
:1002D00051F804CBA0E80810F5E7121D5CBF51F8F7
:1002E000043B40F8043BAFF30080D20724BF11F871
:1002F000013B11F801CB48BF11F8012B24BF00F8D6
:10030000013B00F801CB48BF00F8012B7047704754
:100310007047704710B5203AC0F00B80B1E8185014
:10032000A0E81850B1E81850A0E81850203ABFF4DF
:10033000F5AF5FEA027C24BFB1E81850A0E818507E
:1003400044BF18C918C0BDE810405FEA827C24BFD2
:1003500051F8043B40F8043B08BF7047D20728BF60
:1003600031F8023B48BF11F8012B28BF20F8023BAF
:1003700048BF00F8012B7047754600F02BF8AE46D9
:1003800005006946534620F00700854618B020B5A1
:10039000FFF766FFBDE820404FF000064FF0000772
:1003A0004FF000084FF0000BAC46ACE8C009ACE8D9
:1003B000C009ACE8C009ACE8C00921F007018D46CE
:1003C000704710B50446AFF300802046BDE81040EA
:1003D000FFF731BF00487047000000200149182096
:1003E000ABBEFEE726000200704700004EF68851C3
:1003F000CEF20001086840F4700008607047000009
:1004000080B588B000200090079043F63001C4F218
:100410000201086840F0010008600021C4F20201F6
:10042000086840F0200008602021C4F2020108683A
:1004300020F400600860086840F4E060086043F65B
:100440004001C4F20201086840F40030086044F240
:100450000841C4F2000140F28360086044F20C419C
:10046000C4F20001086840F008000860086840F421
:100470000050086040F2E841C0F600010DF10B00A9
:100480001122FFF7FFFE00980190FFE701990DF19F
:100490000B00405CC8B1FFE7FFE744F20040C4F244
:1004A000000000680006002801D4FFE7F5E7019985
:1004B0000DF10B00405C44F20441C4F200010860FD
:1004C000FFE7019801300190E0E7FFE7FEE7F1EE7A
:1004D000100A4FF6FF71C0F2C03120EA010040F06F
:1004E0004070E1EE100A7047456D626564646564B2
:1004F0002053797374656D73000000000C050008CB
:0C0500000000002060060000FC01000864
:0400000508000245A8
:00000001FF
